:020000040800F2
:100000000000022089010008790800087B08000828
:100010007D0800087F080008810800080000000033
:10002000000000000000000000000000810C00083B
:100030008308000800000000210D00088508000862
:100040002921000829210008292100082921000868
:100050002921000829210008292100082921000858
:100060002921000829210008292100082921000848
:100070002921000829210008292100082921000838
:100080002921000829210008292100082921000828
:100090002921000829210008292100082921000818
:1000A0002921000829210008292100082921000808
:1000B00029210008292100082921000829210008F8
:1000C00029210008292100082921000829210008E8
:1000D0002921000829210008292100089108000889
:1000E00029210008292100082921000829210008C8
:1000F00029210008292100082921000829210008B8
:1001000029210008292100082921000829210008A7
:100110002921000829210008292100082921000897
:100120002921000829210008292100082921000887
:1001300029210008D949000829210008292100089F
:100140002921000829210008292100081950000848
:100150002921000829210008292100082921000857
:100160002921000829210008292100082921000847
:100170002921000829210008292100080000000089
:10018000292100082921000808B500F07FF800BEE9
:10019000FEE71EF0040F0CBFEFF30880EFF30980B9
:1001A0007146374A10472DE9F04182B0044688462F
:1001B000084B5E6B9F6B9D6A074802F0BDF8CDF857
:1001C00000803B4632462946204602F03BF800BEFE
:1001D000FEE700BF00ED00E06076000800BEFEE72D
:1001E0001EF0040F0CBFEFF30880EFF30980714697
:1001F000244A10472DE9F04182B004468846084B56
:100200005E6B9F6B9D6A074802F096F8CDF8008000
:100210003B4632462946204602F014F800BEFEE76F
:1002200000ED00E0707600081EF0040F0CBFEFF345
:100230000880EFF309807146134A10472DE9F04119
:1002400082B004468846084B5E6B9F6B9D6A0748E8
:1002500002F072F8CDF800803B463246294620462F
:1002600001F0F0FF00BEFEE700ED00E07C76000844
:1002700000BEFEE700BEFEE700BEFEE770470000DE
:10028000A7010008F50100083D02000800B583B091
:1002900001F0C2FF304B314A1360314A1360314BD9
:1002A000314A32498B4204D2116819600433043256
:1002B000F7E72A4B1A682E4B9A4200D0FEE7284BEC
:1002C0001A682C4B9A42F9D1234B2B4A13602B4AC4
:1002D00013602B4B02E000221A600433294A934238
:1002E000F9D3254B1B6813B9244B1B6803B1FEE7F8
:1002F00001F0A4FF694601A802F05CF8224C234BF0
:10030000E41AA4100025AC4214DC214C214BE41A61
:10031000A4100025AC4213DC0099019800F018F9F4
:1003200005461D4C1D4BE41AA410002C0EDC28467B
:1003300002F01DF8154B53F8253098470135E2E7D8
:10034000144B53F8253098470135E3E7013C134B34
:1003500053F824309847E8E7BABADECA0000002014
:10036000AC00002000000020047A0008B00000204B
:100370007856341232547698B0000020B0790020BC
:10038000B0000020B4790020C8030008C8030008AA
:10039000C8030008C8030008C8030008C803000811
:1003A000047A000800000020B0000020047A000851
:1003B0000000001000000010B0000020B479002000
:0803C000000000100000001015
:1003D00008B5002000F022F9012000F01FF9642088
:1003E00001F038FCF5E7000000B583B0094C204669
:1003F00006F01EF80146204600F0F6F90DF1070060
:1004000000F01AF90128F9D101210DF1070000F0DF
:10041000EBF9F3E7F074000800B58BB000F062FA76
:100420004FF47A7001F016FC142200210DEB02004B
:1004300005F005FF14220021684605F000FF0A4977
:1004400005A805F0D5FF094B1B78022BE8D105A8BC
:1004500005F0EEFF024605A9054804F0A4FB694635
:10046000044805F09DFFDBE7C8740008BC020020CB
:10047000E0400020D074000800B595B00021019143
:10048000244B1A6C42F080521A641B6C03F08053A8
:100490000193019B0291204B1A6822F480421A605A
:1004A0001B6803F480430293029B092303934FF4D8
:1004B0008033049301230893022309934FF48002AD
:1004C0000A9204220B9248220C920D9303230E935E
:1004D00003A802F01BFF80B90F230F930221109194
:1004E000002311934FF48052129213930FA803F03C
:1004F00045F940B915B05DF804FB40F20B1107480F
:1005000000F0FEF8E8E740F21D11044800F0F8F8AA
:10051000F0E700BF0038024000700040A8740008F7
:1005200010B514460138012801D9204610BD0B46EC
:100530001146184600F058F9F7E7002070470020F0
:10054000704700207047002070470020704700006F
:1005500000B583B001F05EFFFFF78EFF002000F0D2
:1005600031F8012000F02EF800F0E0F800F0A4F8D7
:100570000024019401250095234680220B490C4854
:1005800001F0EAF9019400952346802209490A48BE
:1005900001F0E2F9019400952346802207490848BA
:1005A00001F0DAF901F00AFAFEE700BFB8740008BA
:1005B000D1030008BC740008E9030008C4740008F3
:1005C00019040008F0B587B0044600250095104BCB
:1005D0001A6B42F020021A631B6B03F02003009396
:1005E000009B0C4B33F81070019701230293039585
:1005F00002230493084E01A956F8200002F00EF8D9
:100600002A46394656F8240002F0ECF807B0F0BD4F
:1006100000380240207500080400002008B5044B93
:1006200033F81010034B53F8200002F0E1F808BD36
:10063000207500080400002010B504460A2206496F
:10064000064B186800F018FF012801D0002010BDEB
:10065000014B1B782370FAE7B5000020B802002098
:100660000268044B9A4200D07047034B01221A7073
:10067000FAE700BF004800400C00002038B50268CF
:10068000094B9A4200D038BD0446084D00231A4653
:1006900029460748006800F02FFE0122294620461F
:1006A00003F06EFBEFE700BF00480040B4000020FD
:1006B000B80200207047000030B587B000240094D5
:1006C0000D4B1A6B42F008021A631B6B03F0080310
:1006D0000093009B094D22460821284602F082F82B
:1006E00008230193012302930394049401A928464B
:1006F00001F094FF07B030BD00380240000C02400A
:10070000FEE7000008B501220549064803F038FB62
:1007100000B908BD40F297310348FFF7F1FF00BF71
:10072000B4000020A04000200475000810B588B077
:1007300000240194264B1A6C42F480221A641A6C2D
:1007400002F480220192019A02941A6B42F0020292
:100750001A631B6B03F002030293029B4FF4406386
:100760000393022304930123059303230693072392
:10077000079303A9174801F051FF1748174B03606F
:100780004FF4E13343608460C46004610C2343612F
:100790008461C46103F0A1FAA0B9002205212720D9
:1007A00001F08AFE272001F0BBFE002201214FF458
:1007B000007000F0BFFC0A4B1860FFF7A3FF002099
:1007C00008B010BD40F27F310648FFF799FF00BF27
:1007D0000038024000040240A040002000480040D1
:1007E000B80200200475000870B506460D460024C6
:1007F0001C4B1B78DBB2012B05D00A2001F02AFA32
:100800000134642CF4DDB5F5007F27DC164C4FF481
:1008100000720021204605F012FD2A46314620468E
:1008200005F002FD0F4B00221A70AAB221460F48B4
:1008300003F082FA60B140F2AF310D48FFF760FF7C
:100840000C4B4FF080521A60BFF34F8FBFF36F8F86
:10085000044B1B78002BF3D1002070BD4FF0FF300C
:10086000FBE700BF0C000020B8000020A0400020E3
:100870000475000804ED00E07047FEE7FEE7FEE7C0
:10088000FEE7704708B501F0DFFD00F07BFA08BD18
:1008900008B5024803F0F4FA08BD00BFA0400020EC
:1008A00008B5FFF7DDFE08BD08B5FFF7E7FE08BD98
:1008B00008B5FFF7FFFE08BD04290CD0052902D0BA
:1008C000022904D07047064B03221A707047044B6C
:1008D00002221A707047024B01221A70F2E700BF21
:1008E000BC02002010B5074C01220749204604F045
:1008F000FBFC0649204604F039FD204604F0AEFD1D
:1009000010BD00BFE0400020B9080008280000200A
:10091000124A12F0070F1ED0D11D21F00701C1F5B8
:10092000705313440A460E4802600021416013448C
:10093000083B23F007030B48036059601960991ABC
:1009400051601360084B1960084B1960084B4FF059
:1009500000421A6070474FF47053E4E7C40200206D
:10096000D03E0020C0020020CC3E0020C83E002027
:10097000C43E002010B4134B1A6882421BD359683E
:100980005C18844203D140680144596018464168AC
:100990004418A24213D10C4C2468A2420DD05268D4
:1009A000114441601A6812680260984200D01860D1
:1009B0005DF8044B70471346DEE70460F5E702601C
:1009C000F3E700BFD03E0020C002002070B504460F
:1009D00001F032F83A4B1B68BBB13A4B1B681C4222
:1009E00063D1ACB1083414F0070F11D024F0070420
:1009F000083404F007035BB14FF0500383F3118810
:100A0000BFF36F8FBFF34F8FFEE7FFF781FFE4E780
:100A1000002C4CD02C4B1B68A3424AD32B4B1D6897
:100A200001E02B4615466A68A24202D22A68002AD3
:100A3000F7D1234A1268AA423DD01E6808362A68B8
:100A40001A606B681B1B102B10D9281910F0070FA8
:100A500008D04FF0500383F31188BFF36F8FBFF3BB
:100A60004F8FFEE743606C60FFF784FF6A681649AA
:100A70000B689B1A0B60164909688B4201D2144916
:100A80000B60104B1B6813436B6000232B6001F05D
:100A900067F816F0070F10D04FF0500383F311885A
:100AA000BFF36F8FBFF34F8FFEE70026EFE70026FF
:100AB000EDE70026EBE70026E9E7304670BD00BF12
:100AC000C0020020C43E0020C83E0020D03E0020CE
:100AD000CC3E002080B338B50446A0F1080550F89C
:100AE000042C164909680A4208D14FF0500383F3D9
:100AF0001188BFF36F8FBFF34F8FFEE750F8080CDC
:100B000040B14FF0500383F31188BFF36F8FBFF3F1
:100B10004F8FFEE722EA010244F8042C00F08CFF1C
:100B200054F8041C064A13680B4413602846FFF768
:100B300021FF01F015F838BD704700BFC43E00200A
:100B4000C83E002000F1080343604FF0FF3282608E
:100B5000C360036100230360704700230361704793
:100B600043684B609A688A609A685160996008612E
:100B7000036801330360704730B40D68B5F1FF3F7F
:100B800002D000F1080202E0026904E01A4653684C
:100B90001C68AC42FAD953684B6099608A60516016
:100BA000086103680133036030BC70470369426821
:100BB000816891608268416851605A68824206D0BB
:100BC000002202611A68013A1A6018687047826848
:100BD0005A60F5E782B0002301930D4B1B68B3F117
:100BE000FF3F08D04FF0500383F31188BFF36F8F9E
:100BF000BFF34F8FFEE74FF0500383F31188BFF32D
:100C00006F8FBFF34F8F019B002BFCD002B070475A
:100C10001000002008480068006880F308884FF042
:100C2000000080F3148862B661B6BFF34F8FBFF344
:100C30006F8F00DF00BF000008ED00E0DFF80C0060
:100C4000016841F4700101607047000088ED00E028
:100C50004FF0807340F8043C21F0010140F8081C7B
:100C6000054B40F80C3C40F8202C6FF0020340F894
:100C7000243C4438704700BFD50B0008000000003A
:100C8000074B19680868B0E8F04F80F30988BFF394
:100C90006F8F4FF0000080F311887047AFF3008032
:100CA000E03E00204FF0500383F31188BFF36F8FB5
:100CB000BFF34F8F0A4A136801331360012B00D032
:100CC0007047084B1B6813F0FF0FF9D04FF050032B
:100CD00083F31188BFF36F8FBFF34F8FFEE700BF21
:100CE0001000002004ED00E0094B1B6843B94FF0F1
:100CF000500383F31188BFF36F8FBFF34F8FFEE76D
:100D0000013B034A13600BB983F31188704700BF9E
:100D100010000020000000000000000000000000A3
:100D2000EFF30980BFF36F8F154B1A681EF0100F99
:100D300008BF20ED108A20E9F04F10602DE909006E
:100D40004FF0500080F31188BFF34F8FBFF36F8FC8
:100D500000F0A6FF4FF0000080F3118809BC19686D
:100D60000868B0E8F04F1EF0100F08BFB0EC108A12
:100D700080F30988BFF36F8F704700BFAFF3008027
:100D8000E03E002008B54FF0500383F31188BFF315
:100D90006F8FBFF34F8F00F057FE18B1034B4FF02A
:100DA00080521A60002383F3118808BD04ED00E02F
:100DB000084A0023136008490B60084B1B68084968
:100DC000A1FB03139B09013B06490B60072313603A
:100DD000704700BF10E000E018E000E014000020C1
:100DE000D34D621014E000E03A4B1A683A4B9A4235
:100DF0000DD0384B1A68394B9A4211D14FF050033D
:100E000083F31188BFF36F8FBFF34F8FFEE74FF06F
:100E1000500383F31188BFF36F8FBFF34F8FFEE74B
:100E200010B582B02E4B1A78D2B20192FF221A70FE
:100E30001B78DBB28DF803309DF8033003F05003CC
:100E4000284A1370284B07221A6009E0264A1368C3
:100E5000013B13609DF803305B00DBB28DF803307B
:100E60009DF8033013F0800FF0D11F4B1B68032B4C
:100E700008D04FF0500383F31188BFF36F8FBFF397
:100E80004F8FFEE71B0203F4E063174A1360019BD8
:100E9000DBB2134A1370154B1A6842F470021A60E1
:100EA0001A6842F070421A60FFF782FF0024104B6C
:100EB0001C60FFF7C3FE0F4A136843F04043136002
:100EC000FFF7A8FE00F0ECFEFFF784FE204602B01C
:100ED00010BD00BF00ED00E071C20F4170C20F41B4
:100EE00000E400E0D83E0020DC3E002020ED00E0E1
:100EF0001000002034EF00E0EFF305830F2B0FD933
:100F0000104A9B5CDBB2104A12789A4208D94FF023
:100F1000500383F31188BFF36F8FBFF34F8FFEE74A
:100F20000A4B1B6803F4E063094A1268934208D92C
:100F30004FF0500383F31188BFF36F8FBFF34F8FD0
:100F4000FEE77047F0E300E0D83E00200CED00E043
:100F5000DC3E002010B50446FFF7A4FEA26BE36B55
:100F60009A4204D00024FFF7BFFE204610BD0124A2
:100F7000F9E710B50446FFF795FEA36B23B10024F3
:100F8000FFF7B2FE204610BD0124F9E770B5044614
:100F90001646856B026C5AB903681BB100200135F7
:100FA000A56370BD406800F087FF00236360F6E72B
:100FB0006EB9806805F038F9226CA3681344A36009
:100FC0006268934219D32368A3600020E7E7C068F2
:100FD00005F02AF9226C5242E3681344E360216869
:100FE0008B4202D263681A44E260022E01D00020D4
:100FF000D5E725B1013D0020D1E70020CFE7002053
:10100000CDE7026C72B110B5C3681344C360446885
:10101000A34201D30368C3600C46C168204605F0B3
:1010200003F910BD704738B50546FFF73BFE95F84C
:10103000454064B203E000F029FF013C64B2002C9B
:1010400008DD6B6A33B105F1240000F08DFE002845
:10105000F3D0F0E7FF2385F84530FFF745FEFFF7B3
:1010600021FE95F8444064B203E000F00FFF013C1C
:1010700064B2002C08DD2B6933B105F1100000F0DB
:1010800073FE0028F3D0F0E7FF2385F84430FFF724
:101090002BFE38BD38B540B94FF0500383F31188AB
:1010A000BFF36F8FBFF34F8FFEE704460D46FFF788
:1010B000F9FD2168E26B236C03FB021060600020E5
:1010C000A063A160013A02FB0313E360FF2384F8ED
:1010D000443084F84530A5B923691BB9FFF704FEF5
:1010E000012038BD04F1100000F03EFE0028F5D0CC
:1010F000084B4FF080521A60BFF34F8FBFF36F8FD2
:10110000ECE704F11000FFF71DFD04F12400FFF7E8
:1011100019FDE3E704ED00E010B5029B0C4639B180
:101120001A60D8631C6401211846FFF7B3FF10BD95
:101130001B60F6E740B94FF0500383F31188BFF30B
:101140006F8FBFF34F8FFEE7F0B583B0054611B147
:1011500001FB00F000E0002017460C464830FFF786
:1011600035FC064638B100903B4600F14802214666
:101170002846FFF7D1FF304603B0F0BDF0B585B08B
:10118000019260B1044699B9026C8AB14FF05003E4
:1011900083F31188BFF36F8FBFF34F8FFEE74FF0DC
:1011A000500383F31188BFF36F8FBFF34F8FFEE7B8
:1011B000022B0BD1E26B012A08D04FF0500383F3CE
:1011C0001188BFF36F8FBFF34F8FFEE71E460F46A8
:1011D00000F062FE50B9019B53B14FF0500383F30E
:1011E0001188BFF36F8FBFF34F8FFEE700253AE002
:1011F000002538E0324639462046FFF7C7FE636ACD
:101200004BB9A8B13B4B4FF080521A60BFF34F8FE0
:10121000BFF36F8F0CE004F1240000F0A5FD38B19E
:10122000344B4FF080521A60BFF34F8FBFF36F8F74
:10123000FFF75AFD012005B0F0BDFFF755FD002076
:10124000F9E702A800F0D6FD012519E0002384F893
:10125000443021E0002384F8453023E02046FFF7A6
:10126000E2FE00F07DFCFFF71DFDA26BE36B9A42EE
:10127000C0D3022EBED0019B002BDED0002DE0D0CB
:10128000FFF732FD00F0D8FBFFF70CFD94F8443077
:101290005BB2B3F1FF3FD9D094F845305BB2B3F104
:1012A000FF3FD7D0FFF720FD01A902A800F0AEFD57
:1012B000C8B92046FFF74EFE0028CFD0019904F1AF
:1012C000100000F039FD2046FFF7ADFE00F048FCAD
:1012D0000028C8D1074B4FF080521A60BFF34F8FE0
:1012E000BFF36F8FBFE72046FFF79DFE00F038FC8D
:1012F0000020A0E704ED00E02DE9F84360B10446CA
:1013000099B9006C88B14FF0500383F31188BFF393
:101310006F8FBFF34F8FFEE74FF0500383F31188B9
:10132000BFF36F8FBFF34F8FFEE7022B0BD1E06B44
:10133000012808D04FF0500383F31188BFF36F8F5B
:10134000BFF34F8FFEE71F4690468946FFF7D4FD57
:10135000EFF311864FF0500383F31188BFF36F8FC3
:10136000BFF34F8FA26BE36B9A4203D3022F01D0DE
:1013700000200FE094F845506DB23A4649462046A9
:10138000FFF704FEB5F1FF3F08D06B1C5BB284F899
:101390004530012086F31188BDE8F883636A5BB1AC
:1013A00004F1240000F0E0FC40B1B8F1000F07D0D8
:1013B0000120C8F80000EDE70120EBE70120E9E794
:1013C0000120E7E760B170B50446036C8BB14FF0C4
:1013D000500383F31188BFF36F8FBFF34F8FFEE786
:1013E0004FF0500383F31188BFF36F8FBFF34F8F1C
:1013F000FEE703682BB30E46FFF77EFDEFF3118582
:101400004FF0500383F31188BFF36F8FBFF34F8FFB
:10141000A26BE36B934226D994F845305BB201325C
:10142000A263B3F1FF3F18D1636AF3B104F1240062
:1014300000F09AFCD8B1E6B10120306085F3118844
:1014400070BD4368002BD6D04FF0500383F3118852
:10145000BFF36F8FBFF34F8FFEE701335BB284F8AA
:1014600045300120EAE70020E8E70120E6E7012017
:10147000E4E70120E2E70000F0B585B0019260B139
:10148000044699B9036C8BB14FF0500383F3118874
:10149000BFF36F8FBFF34F8FFEE74FF0500383F31F
:1014A0001188BFF36F8FBFF34F8FFEE70F4600F039
:1014B000F3FC50B9019B53B14FF0500383F31188F3
:1014C000BFF36F8FBFF34F8FFEE700263EE000268D
:1014D0003CE039462046FFF794FD013DA5632369B2
:1014E00023B9FFF701FC012005B0F0BD04F11000A5
:1014F00000F03AFC0028F4D0344B4FF080521A60D0
:10150000BFF34F8FBFF36F8FEBE7FFF7EDFB0020CB
:10151000EAE702A800F06EFC012621E0002384F82F
:10152000443029E0002384F845302BE02046FFF7C3
:101530007AFD00F015FB09E02046FFF774FD00F08E
:101540000FFB2046FFF715FD00283DD1FFF7AAFB52
:10155000A56B002DBDD1019B002BD6D0002ED8D07D
:10156000FFF7C2FB00F068FAFFF79CFB94F84430E9
:101570005BB2B3F1FF3FD1D094F845305BB2B3F129
:10158000FF3FCFD0FFF7B0FB01A902A800F03EFC5F
:101590000028D1D12046FFF7ECFC0028C6D00199E5
:1015A00004F1240000F0C8FB2046FFF73CFD00F0EA
:1015B000D7FA0028CAD1054B4FF080521A60BFF30A
:1015C0004F8FBFF36F8FC1E700208DE704ED00E080
:1015D0002DE9F84360B1044699B9036C8BB14FF023
:1015E000500383F31188BFF36F8FBFF34F8FFEE774
:1015F0004FF0500383F31188BFF36F8FBFF34F8F0A
:10160000FEE717468946FFF777FCEFF311864FF0A8
:10161000500383F31188BFF36F8FBFF34F8FD4F85C
:101620003880B8F1000F1DD094F844506DB249468F
:101630002046FFF7E6FC08F1FF33A363B5F1FF3F57
:1016400005D06B1C5BB284F8443001200BE02369A9
:101650006BB104F1100000F087FB50B15FB10120C5
:10166000386000E0002086F31188BDE8F88301208F
:10167000F9E70120F7E70120F5E70000084B1B68B8
:101680001B683BB1064B1B68DB68DB685A68054B7F
:101690001A607047034B4FF0FF321A60704700BF6B
:1016A000E43E0020BC3F002010B50446006BFFF76D
:1016B00011FA2046FFF70EFA10BD2DE9F0478046DB
:1016C0009946089D099F0A9C266B02F18042013AC7
:1016D00006EB820626F0070600230F2B07D8C85614
:1016E000E21882F83400CA560AB10133F5E7002344
:1016F00084F84330062D00D90625E56265644FF075
:10170000000AC4F848A0201DFFF727FA04F11800CA
:10171000FFF723FA2461C5F10705A5616462C4F8E7
:101720004CA084F850A04A4641463046FFF790FA54
:10173000206007B13C60BDE8F087000038B50024A8
:1017400007E004EB840293000E481844FFF7FAF90F
:101750000134062CF5D90C4D2846FFF7F3F90B4C54
:101760002046FFF7EFF90A48FFF7ECF90948FFF7C1
:10177000E9F90948FFF7E6F9084B1D60084B1C60C2
:1017800038BD00BFEC3E0020903F0020A43F002069
:10179000C43F0020F03F0020DC3F0020E43E00205A
:1017A000E83E002010B50446FFF77CFA204A136893
:1017B000013313601F4B1B685BB11F4B1B686BB978
:1017C0001C4B1B68DA6AE36A9A4207D8194B1C6003
:1017D00004E0184B1C601368012B26D0174A1368CD
:1017E00001331360E36A01229A40154908680243F5
:1017F0000A6003EB83039A00211D12481044FFF78F
:10180000AFF9FFF771FA0C4B1B686BB1094B1B6802
:10181000DA6AE36A9A4207D20B4B4FF080521A60A1
:10182000BFF34F8FBFF36F8F10BDFFF787FFD5E773
:10183000783F0020E03E0020D83F0020883F002075
:101840008C3F0020EC3E002004ED00E00F4B1B68B5
:10185000D3B110B5FFF726FA0D4BDB68DC68201D0D
:10186000FFF7A4F90B4A1368013B1360074A13689A
:10187000013B1360FFF738FA2046FFF715FF034BD3
:101880001B68002BE6D110BD704700BF7C3F0020D5
:10189000F03F0020783F002008B5FFF7D7FF064B48
:1018A0001B68012BF9D9054B4FF080521A60BFF32A
:1018B0004F8FBFF36F8FF0E7EC3E002004ED00E0A8
:1018C00070B504460E461D4B1D681D4B186804304C
:1018D000FFF76CF950B91A4B1B68DA6A012303FA57
:1018E00002F218490B6823EA02030B60B4F1FF3FD0
:1018F00013D02C44124B1B685C60A54216D8124BC7
:1019000018680F4B19680431FFF736F90F4B1B6845
:10191000A34212D90D4B1C600FE0002EE9D0084BFA
:10192000196804310A48FFF71BF906E0094B1868EB
:10193000034B19680431FFF71FF970BD0440002004
:10194000E03E00208C3F0020E43E0020BC3F002011
:10195000DC3F0020E83E00202DE9F04385B007463B
:101960008846154699469000FFF730F8F8B10646CC
:101970005420FFF72BF80446A8B10663D4B1002326
:10198000039302940D9B01930C9B00934B462A46B4
:1019900041463846FFF791FE2046FFF703FF01203E
:1019A00005B0BDE8F0833046FFF794F8E6E74FF066
:1019B000FF30F5E74FF0FF30F2E7000000B583B0ED
:1019C000174B019300230093802216491648FFF716
:1019D000C3FF012805D0B0F1FF3F17D003B05DF879
:1019E00004FB4FF0500383F31188BFF36F8FBFF3F5
:1019F0004F8F0E4B4FF0FF321A600D4B01221A60D1
:101A00000C4B00221A60FFF7EFF9E7E74FF05003A5
:101A100083F31188BFF36F8FBFF34F8FFEE700BFD3
:101A2000B83F00202475000899180008BC3F00202A
:101A3000D83F002004400020024A1368013313609D
:101A4000704700BF843F0020F8B53A4B1B68002B5D
:101A500064D1394B1D6801351D60C5B9374B1B6812
:101A60001B6843B14FF0500383F31188BFF36F8FAE
:101A7000BFF34F8FFEE7314A1168314B1868106091
:101A80001960304A136801331360FFF7F7FD2E4BDE
:101A90001B68AB4238D900242C4B1B68DB6A03EB74
:101AA00083039A002A4B9B58012B3CD901243AE02E
:101AB0000124224B1B681B6843B3204B1B68DB6867
:101AC000DE6873689D4226D3371D3846FFF76EF8EF
:101AD000B36A1BB106F11800FFF768F8F36A012238
:101AE0009A401C49086802430A6003EB83039A008A
:101AF000394617481044FFF733F8F26A134B1B6856
:101B0000DB6A9A42D4D2D4E70024D2E70E4B4FF0DE
:101B1000FF321A60C0E70C4A1360BDE70E4A136833
:101B20000133136000240D4B1B6803B101242046D0
:101B3000F8BD00BF843F002004400020E43E0020A8
:101B4000E83E0020C03F0020BC3F0020E03E0020D7
:101B5000EC3E00208C3F0020803F00200840002009
:101B600038B5334B1B6843B94FF0500383F31188EA
:101B7000BFF36F8FBFF34F8FFEE7FFF793F82C4B48
:101B80001A68013A1A601B68002B4DD1294B1B685B
:101B900023B90024FFF7A8F8204638BD0024264BBF
:101BA0001B681BB3244BDB68DC6804F11800FEF7EC
:101BB000FDFF251D2846FEF7F9FFE36A01229A4042
:101BC0001E49086802430A6003EB83039A00294612
:101BD0001B481044FEF7C4FFE26A1A4B1B68DB6A1D
:101BE0009A42DCD3184B01221A60D8E70CB1FFF7F8
:101BF00045FD164B1C6854B1FFF726FF10B1124B80
:101C000001221A60013CF7D1104B00221A600E4BE2
:101C10001B685BB10E4B4FF080521A60BFF34F8FC1
:101C2000BFF36F8F0124B5E70024B3E70024B1E7C9
:101C3000843F0020783F0020C43F00208C3F0020DC
:101C4000EC3E0020E03E002008400020803F0020C5
:101C500004ED00E010B5A8B104460F4B1B6843B17A
:101C60004FF0500383F31188BFF36F8FBFF34F8F93
:101C7000FEE7FFF7E1FE00212046FFF721FEFFF718
:101C80006FFF38B9054B4FF080521A60BFF34F8F8A
:101C9000BFF36F8F10BD00BF843F002004ED00E054
:101CA000204B1B681BB1204B01221A6070471E4B52
:101CB00000221A601D4B1B68B3FA83F3DBB2C3F139
:101CC0001F0303EB83018A0019498A5842B94FF078
:101CD000500383F31188BFF36F8FBFF34F8FFEE77D
:101CE00010B413489A00D418A10001444C686468E9
:101CF0004C601A4491000831084484420BD003EB35
:101D000083039A000A4B13445B68DA68094B1A6034
:101D10005DF8044B704761680548142202FB03021A
:101D20005160ECE7843F0020084000208C3F0020F9
:101D3000EC3E0020E03E002040B94FF0500383F31A
:101D40001188BFF36F8FBFF34F8FFEE710B50C46BE
:101D5000044B19681831FEF70FFF01212046FFF7E9
:101D6000AFFD10BDE03E002038B5C368DC6844B963
:101D70004FF0500383F31188BFF36F8FBFF34F8F82
:101D8000FEE704F118052846FEF710FF134B1B6809
:101D9000E3B9251D2846FEF709FFE36A01229A40B0
:101DA0000F49086802430A6003EB83039A0029463F
:101DB0000C481044FEF7D4FEE26A0B4B1B68DB6A4A
:101DC0009A4208D90120094B186038BD29460848B5
:101DD000FEF7C6FEF0E70020F7E700BF843F0020D3
:101DE0008C3F0020EC3E0020E03E00200840002018
:101DF000C43F0020034B1B680360034B1B68436018
:101E0000704700BFC03F002004400020F8B550B12B
:101E1000054689B94FF0500383F31188BFF36F8FE4
:101E2000BFF34F8FFEE74FF0500383F31188BFF3EA
:101E30006F8FBFF34F8FFEE70C46FEF733FF114B5A
:101E4000196868680A1A2368B3F1FF3F16D02F6833
:101E50000D4E3668B74201D0884211D9934203D85B
:101E600000232360012405E09B1A23602846FFF726
:101E7000C1FF0024FEF738FF2046F8BD0024F9E733
:101E80000124F7E704400020C03F0020014B01225D
:101E90001A60704708400020054B1B6833B1054BA2
:101EA0001B680BB10020704702207047012070476B
:101EB000D83F0020843F0020002849D038B5044690
:101EC000264A1268824208D04FF0500383F31188EB
:101ED000BFF36F8FBFF34F8FFEE7826C42B94FF0B5
:101EE000500383F31188BFF36F8FBFF34F8FFEE76B
:101EF000013A8264C06A616C88422BD062BB251DA6
:101F00002846FEF753FE70B9E26A142303FB02F37E
:101F10001349CB583BB9012303FA02F211490B686C
:101F200023EA02030B60636CE362C3F10702A26160
:101F3000012404FA03F20B49086802430A602946A7
:101F4000074A142000FB0320FEF70AFE204638BD96
:101F5000002070470020FAE70020F8E7E03E00206C
:101F6000EC3E00208C3F0020842801D003307047D5
:101F700000207047EFF30580003018BF0120704744
:101F8000F0B585B00F46446805680669B0F90800E9
:101F9000FFF7EAFF03AB019300903B46B2B229463C
:101FA0002046FFF7D9FC012802D1039805B0F0BD07
:101FB0000020FBE710B582B0044600230193FFF731
:101FC000D9FF88B101A92046FFF7FCF9012816D1F5
:101FD000019BB3B10D4B4FF080521A60BFF34F8F8E
:101FE000BFF36F8F002008E000231A4619462046F1
:101FF000FFF7C4F8012806D1002002B010BDFF2071
:10200000FBE70020F9E7FF20F7E700BF04ED00E061
:1020100008B5002241680068FFF78CF808BD000091
:1020200030B585B00446019100230393154602B9EB
:102030000125FFF79FFF98B1002303AA01A92046BD
:10204000FFF75AF9012818D1039BC3B10D4B4FF08C
:1020500080521A60BFF34F8FBFF36F8F002008E0EC
:1020600000232A4601A92046FFF788F8012802D15B
:10207000002005B030BDFF20FBE7FF20F9E700207E
:10208000F7E700BF04ED00E070B584B004460291AC
:102090000023019349B10D46164600230393B2F184
:1020A000FF3F0BD062B91E460AE004AB802243F822
:1020B000102D93E8070084E807002AE04FF0FF3670
:1020C000FFF758FFB0B103AA01A92846FFF780FA2D
:1020D00001280CD000230093039BABB1114B4FF0B0
:1020E00080521A60BFF34F8FBFF36F8F0CE0102345
:1020F0000093F1E7324601A92846FFF7BDF9012810
:102100000AD066B9002300936B4693E8070084E881
:102110000700204604B070BD10230093F4E740236D
:10212000F1E700BF04ED00E0FEE700000F49D1F841
:10213000883043F47003C1F888300D4B1A6842F0C0
:1021400001021A60002098601A6822F0847222F45A
:1021500080321A60074A5A601A6822F480221A6094
:10216000D8604FF000638B60704700BF00ED00E067
:102170000038024010300024224B9B6803F00C030F
:10218000042B14D0082B16D01BB11F4B1F4A1A600A
:1021900002E01D4B1D4A1A601A4B9B68C3F30313E0
:1021A0001B4AD15C184A1368CB4013607047164B2A
:1021B000184A1A60F0E7134B5A685B6803F03F0354
:1021C00012F4800F13D0134AB2FBF3F20D4B5B688D
:1021D000C3F3881303FB02F30A4A5268C2F30142B5
:1021E00001325200B3FBF2F3074A1360D4E7074A07
:1021F000B2FBF3F2034B5B68C3F3881303FB02F3F8
:10220000EAE700BF00380240140000200024F40078
:102210002C75000800127A0008B5FFF787FF054B00
:10222000054A9A60D3F8882042F47002C3F88820E7
:1022300008BD00BF00ED00E00000000808B5FFF792
:102240009BFF08BDF8B504460D4617461E462748B5
:1022500000F072F82168264800F06EF861682548A1
:1022600000F06AF8A168244800F066F8E1682348A5
:1022700000F062F82169224800F05EF861692148A7
:1022800000F05AF8A169204800F056F8E1691F48AB
:1022900000F052F81E4800F04FF829461D4800F0A3
:1022A0004BF81D4CE16A1D4800F046F8216B1C48B4
:1022B00000F042F8E16B1B4800F03EF815F0800F8B
:1022C0000AD115F4004F0CD1174800F035F80699E3
:1022D000164800F031F8F8BD3946154800F02CF8E2
:1022E000EFE73146134800F027F8EDE744750008A2
:1022F000547500086475000874750008847500083A
:1023000094750008A4750008B4750008C475000829
:10231000D4750008E075000800ED00E0F0750008D5
:10232000007600081076000840760008487600081D
:1023300020760008307600080FB400B583B004ABF7
:1023400053F8042B01938021064804F0A5F80028D7
:1023500003DD0146034800F007F803B05DF804EB25
:1023600004B070470C4000204FF0FF307047FEE78C
:1023700008B503460C4A12685AB10B4A1068033379
:1023800023F003030344094A934206D8064A136024
:1023900008BD054A06491160EFE703F02FFF0C2343
:1023A00003604FF0FF30F3E78C40002000FC012079
:1023B000B479002001230360014B0B60704700BF1C
:1023C000180000207047000010B504460E4B187826
:1023D0004FF47A73B3FBF0F30C4A1068B0FBF3F0E0
:1023E00000F0AAF868B90F2C01D901200AE00022F8
:1023F00021464FF0FF3000F05FF8054B1C600020D5
:1024000000E0012010BD00BF2000002014000020CB
:102410002400002008B50B4B1A6842F400721A60C1
:102420001A6842F480621A601A6842F480721A6074
:10243000032000F02FF80F20FFF7C6FFFFF7C2FFC1
:10244000002008BD003C0240034A1168034B1B7882
:102450000B441360704700BF2C4600202000002072
:10246000014B1868704700BF2C46002038B5044661
:10247000FFF7F6FF0546B4F1FF3F02D0044B1B788F
:102480001C44FFF7EDFF401BA042FAD338BD00BF4C
:1024900020000020074AD36823F4E0631B041B0CD0
:1024A000000200F4E060184340F0BF6040F40030E8
:1024B000D060704700ED00E030B4174BDB68C3F329
:1024C0000223C3F10704042C28BF04241D1D062D7C
:1024D00018D9033B4FF0FF3505FA04F421EA040153
:1024E000994005FA03F322EA0303194300280BDBA2
:1024F0000901C9B200F1604000F5614080F80013A5
:1025000030BC70470023E5E700F00F000901C9B2B5
:10251000024B1954F4E700BF00ED00E014ED00E0B9
:1025200000F01F02400901239340024A42F8203084
:10253000704700BF00E100E00138B0F1807F0AD2AF
:10254000064B5860064AF02182F82310002098605C
:1025500007221A6070470120704700BF10E000E0BA
:1025600000ED00E090F83530DBB2022B03D0802381
:10257000436501207047052380F8353002681368F1
:1025800023F001031360002070477047704710B5B7
:102590000446036841F214029A5812F0400F11D118
:1025A00041F214029B5813F0010F19D1226841F235
:1025B00014034FF48031D1502268D35813F4004FE4
:1025C0001BD110BD02F000FA226841F21403402131
:1025D000D150012384F84430002384F84530E5E7E6
:1025E000FFF7D3FF2168012341F214028B5084F8D6
:1025F0004430002384F84530D8E72046FFF7C6FF73
:10260000226841F214034FF40041D150012384F8B1
:102610004430002384F84530D3E7000000230F2B1B
:1026200000F2D780F0B482B039E0072200E0002247
:10263000B2403A430234674E46F82420664A146892
:10264000EA4302EA04064F6817F4803F01D045EAE6
:102650000406614C2660646802EA04064F6817F4B9
:10266000003F01D045EA04065B4C6660A46802EABC
:1026700004064F6817F4801F01D045EA0406564C43
:10268000A660E46822404E6816F4001F01D045EAB7
:102690000402514CE26001330F2B00F297800122BB
:1026A0009A400C6804EA0205AA42F4D14C68022C54
:1026B00001D0122C10D1DE08083650F826C003F0E5
:1026C0000704A7000F24BC402CEA040C0C69BC4092
:1026D00044EA0C0440F8264004685F000326BE402C
:1026E000F64306EA040C4C6804F00304BC4044EAD8
:1026F0000C0404604C6804F1FF3CBCF1010F03D9E9
:10270000112C01D0122C10D1846806EA040CCC687C
:10271000BC4044EA0C048460446824EA02024C6829
:10272000C4F300149C4014434460C26816408A6895
:10273000BA403243C2604A6812F0805FABD00022D8
:102740000192264A546C44F480445464526C02F45E
:1027500080420192019A9C08A61C1E4A52F82670DB
:1027600003F0030296000F22B24027EA02071C4A38
:1027700090423FF45CAF02F5806290421AD002F5BD
:102780008062904218D002F58062904216D002F525
:102790008062904214D002F58062904212D002F51D
:1027A0008062904210D002F5806290423FF43DAFCB
:1027B00008223DE701223BE7022239E7032237E7FF
:1027C000042235E7052233E7062231E702B0F0BCE8
:1027D0007047704700380140003C0140003802401B
:1027E0000000024012B9090481617047816170479D
:1027F0004369594041617047F8B50668346A04F08E
:102800000F07C4F34343C4F30A14022B2ED16CB355
:1028100007EB8702D3000344596C39B305462246BF
:10282000304601F05FFCBA003A44D3002B445A6CA6
:1028300022445A64DA6C2244DA6406EB4713D3F874
:1028400010150B4A0A408AB1D3F8002522F08042C5
:1028500042F00042C3F80025BB00D919CA002A443F
:1028600092F8503083F0010382F85030F8BD00BF79
:102870000000F81FF0B585B09DF828609DF82C7019
:10288000BDF830C090F89042012C2AD005460120B6
:1028900085F89002880000EB010E4FEACE042C442C
:1028A00084F83830A4F840C084F8391084F83F70B8
:1028B00002F07F0E84F83AE04FEAD21E84F83BE043
:1028C0000844C4002C4484F83C60CDF808C001974B
:1028D0000096286801F01FFD002385F8903205B0AE
:1028E000F0BD0220FBE790F89032012B0BD010B521
:1028F0000446012380F89032006801F0C6FE0020F3
:1029000084F8900210BD02207047002837D0F0B53F
:102910008BB00646032380F8913202F04FFA3068FC
:1029200001F08AFB344654F810CB6D460FCC0FC52E
:102930000FCC0FC594E8030085E80300371D97E826
:102940000E00604601F034FB0121306801F07AFB93
:10295000344654F810CB6D460FCC0FC50FCC0FC5C5
:1029600094E8030085E8030097E80E00604601F054
:10297000F3FB012386F8913200200BB0F0BD01205B
:102980007047F8B59DF81870BDF820609DF824C018
:102990008D000D44EC00044484F83B2084F83F3063
:1029A0006FB901EB8105EC000444032584F8425023
:1029B000032B00F2B380DFE803F00AAA3E7B01EBB1
:1029C0008105EC000444022584F84250F0E7012F11
:1029D00040F0A480002A40F0A18036B901EB8102CA
:1029E000D3000344012283F8512001EB8102D3007C
:1029F000034493F85130B3B901EB8102D30003448F
:102A0000002283F8422001EB8102D300034493F8B3
:102A10005C30022B00F0828001EB8102D300034482
:102A200083F83DC07AE001EB8102D3000344022227
:102A300083F84220E7E722BB01EB8102D300034485
:102A400093F85130ABB901EB8102D300034400226B
:102A500083F8422001EB8102D300034493F85C30F9
:102A6000022B5BD001EB8102D300034483F83DC00D
:102A700054E001EB8102D3000344022283F8422098
:102A8000E8E701EB8102D300034493F850303BB9EF
:102A900001EB8102D3000344002283F842203DE091
:102AA00001EB8102D3000344022283F8422035E087
:102AB000B2B901EB8102D300034493F851303BB922
:102AC00001EB8102D3000344002283F8422025E079
:102AD00001EB8102D3000344022283F842201DE06F
:102AE00001EB8102D300034493F850303BB901EB72
:102AF0008102D3000344002283F842200EE001EB60
:102B00008102D3000344022283F8422006E001EB55
:102B10008102D3000344002283F842208A00541823
:102B2000E3000344079C5C649E64002483F85C40DB
:102B3000DC6483F8391083F85D401144CB0003F165
:102B40003801027C0144006801F056FCF8BD30B544
:102B500083B005460468D4F840340193D4F8403477
:102B60000093009B23F02E030093019B13F0020FB0
:102B700007D0019B13F0010F25D1009B43F0020306
:102B80000093019B13F0080F10D0009B43F0080343
:102B90000093019B13F0040F31D0AB69022B19D0C5
:102BA000EB68032B26D0284602F04CF9019B13F06A
:102BB000200F03D0009B43F020030093009BC4F838
:102BC000403403B030BDA36923F00053A36102F089
:102BD00039F9D2E7019B03F4C023B3F5802F04D069
:102BE0000121286801F02EFBDDE70221286801F0B1
:102BF00029FBD8E74EF66022C4F80424D3E7D4F8C2
:102C0000403423F02E03C4F840342A68936943F01B
:102C100000539361CAE7F8B506460D46076807EB0F
:102C2000411707F5A064A36813F0040F41D00423F3
:102C3000A360E36843F00203E360A36813F4007F3A
:102C40006DD1A36813F0010F00F08A80336963B17E
:102C5000AB005919CA003244916C2269C2F31202C6
:102C6000891A2B44DA003244D164AA002A44D300E2
:102C70003344012283F85D2000219965A26093F816
:102C80003F30002B57D0022B55D0032B5DD1D7F806
:102C9000003543F00053C7F8003505EB8502D3003B
:102CA0003344012283F85C202946304602F0D6F8EE
:102CB0004BE0A36813F0200F02D02023A360BCE7F1
:102CC000A36813F0080F17D1A36813F4806FB4D072
:102CD000E36843F00203E360006801F0D6FC1023D0
:102CE000A36005EB8502D3003344082283F85D20FE
:102CF0004FF48063A360A0E7E36843F00203E3605E
:102D000001EB8102D3000344052283F85D201023E8
:102D1000A3600823A360006801F0B7FC8DE7E368B7
:102D200043F00203E3602946306801F0AEFC4FF443
:102D30000073A36013E0E36843F00203E3602946F5
:102D4000306801F0A2FC1023A360AB005919CA003F
:102D5000324492F8503083F0010382F85030F8BDCD
:102D6000A36813F0020F50D0E36823F00203E3607E
:102D700005EB8502D300334493F85D30012B20D05E
:102D8000052B32D0062B01D0082B21D1AA002A44D2
:102D9000D30033449A6D511C9965032A2DD9AA009A
:102DA0002A44D300334400229A65042283F85C202D
:102DB000D7F8003523F0804343F00043C7F80035CF
:102DC00006E005EB8502D3003344012283F85C2042
:102DD0000223A36005EB8502D300334493F85C2003
:102DE0002946304602F03AF8B9E705EB8502D300F0
:102DF0003344052283F85C20EAE705EB8502D30023
:102E00003344022283F85C20D2E7A36813F0800FDA
:102E100026D1A36813F0100FA1D005EB8502D300D3
:102E2000334493F83F30032B32D0AB005919CA001A
:102E30003244032182F85D101022A2601D4405FA7D
:102E400001F31E4496F83F300BB1022B87D1D7F81F
:102E5000003523F0804343F00043C7F800357EE798
:102E6000E36843F00203E360AB005919CA0032443F
:102E7000916D013191652B44DA003244062382F8CA
:102E80005D302946306801F000FC8023A36066E7CE
:102E9000E36843F00203E3602946306801F0F5FB84
:102EA000C3E7F8B5046804EB411404F5A064A36813
:102EB00013F0040F24D10E460546A36813F0200F2B
:102EC00025D02023A36001EB8102D300034493F8B3
:102ED0003D30012B1AD18F007A18D300034404220D
:102EE00083F85D20E36843F00203E360006801F0CB
:102EF000CCFBB919C8002844022380F85C3005E0F7
:102F00000423A360E36843F00203E360F8BDA36811
:102F100013F0400F4CD1A36813F4007F5FD1A36876
:102F200013F0010F66D1A36813F0080F77D1A368DF
:102F300013F0100F40F08480A36813F0800F40F06E
:102F40009580A36813F4806F40F0A180A36813F00C
:102F5000020FDBD0E36823F00203E36001EB8102A0
:102F6000D300034493F85D30012B00F0A480032BC1
:102F700000F0C480042B00F0C980052B00F0D18044
:102F8000062B02D0082B40F0A180B2003244D300BF
:102F90002B449A6D511C9965032A40F2CA8028235C
:102FA00003FB065300229A65042283F85C208DE01F
:102FB0008B005918CA000244042182F85D10334482
:102FC000DA00024400239365E36843F00203E36000
:102FD0003146006801F059FB4023A36096E7E3689F
:102FE00043F00203E360006801F04FFB4FF400730D
:102FF000A3608BE78F007A18D300034400229A6500
:10300000E36843F00203E360006801F03EFB012344
:10301000A360B919C800284480F85D3076E708231A
:10302000A360E36843F00203E360006801F02DFB56
:1030300006EB8601C8002844052380F85D3065E76B
:103040008F007A18D300034400229A65E36843F0A6
:103050000203E360006801F018FBB919C8002844B6
:10306000032380F85D301023A3604FE7E36843F04B
:103070000203E360006801F008FB06EB8601CB0069
:103080002B44062283F85D208023A3603EE7E3689B
:1030900043F00203E360006801F0F7FA1023A36035
:1030A0004FF48063A36006EB8601CB002B4408221B
:1030B00083F85D202AE78A000A44D30003440122F2
:1030C00083F85C2093F83F30022B0CD00223A360DE
:1030D00006EB8602D3002B4493F85C203146284649
:1030E00001F0BCFE12E78A000A44D300034493F8BF
:1030F000512082F0010283F85120E7E701EB8102C1
:10310000D3000344022283F85C20DFE78A000A44EC
:10311000D3000344022283F85C20002283F83D2080
:10312000D4E701EB8102D3000344052283F85C203D
:10313000CCE7282303FB0653022283F85C20C5E773
:10314000F8B504460568284600F0E4FF012800D0E1
:10315000F8BD206800F0DAFF0028F9D0206800F000
:10316000D5FF10F4001F03D023684FF400125A61FA
:10317000206800F0CBFF10F4801F03D023684FF4C9
:1031800080125A61206800F0C1FF10F0806F03D0F8
:1031900023684FF080625A61206800F0B7FF10F09A
:1031A000020F02D0236802225A61206800F0AEFFAD
:1031B00010F0005F25D1206800F0A8FF10F0807F9C
:1031C00031D1206800F0A2FF10F0080F2FD1206845
:1031D00000F09CFF10F0007F30D1206800F096FFD7
:1031E00010F0100FB4D02268936923F0100393619C
:1031F0002046FFF701FB2268936943F010039361B7
:10320000A6E7D5F8403423F02E03C5F84034204615
:1032100001F01EFE0121206801F014F823684FF030
:1032200000525A61C7E72046FFF791FCC9E72046E4
:1032300001F002FE236808225A61C8E7206801F005
:1032400015FA0746002604E0F1B22046FFF729FEF2
:103250000136A368B3420FD90123B3403B42F7D0F4
:1032600005EB4613D3F8003513F4004FECD0F1B260
:103270002046FFF7D0FCEBE723684FF000725A615D
:10328000ABE738B590F89032012B0ED004460125FB
:1032900080F89052006800F0C9FE2946206801F0CD
:1032A0000BF8002084F8900238BD0220FCE790F86B
:1032B0009032012B0BD010B50446012380F89032D8
:1032C000006801F0FDFA002084F8900210BD022091
:1032D000704708B5006800F0D5FF08BD01EB81011B
:1032E000CB00184490F85C00704701EB8101CB00E3
:1032F0001844C06C704708B5006801F007F808BDB5
:1033000008B5006800F0F9FF08BD0000002800F0D3
:10331000BB8170B582B00446036813F0010F3BD047
:10332000A74B9B6803F00C03042B2CD0A44B9B6889
:1033300003F00C03082B21D06368B3F5803F4FD016
:10334000B3F5A02F52D09E4B1A6822F480321A6037
:103350001A6822F480221A606368002B50D0FFF7AD
:103360007FF80546964B1B6813F4003F14D1FFF716
:1033700077F8401B6428F5D903208AE1904B5B68FD
:1033800013F4800FD8D08E4B1B6813F4003F03D08A
:103390006368002B00F07A81236813F0020F55D088
:1033A000874B9B6813F00C0F3ED0854B9B6803F056
:1033B0000C03082B33D0E368002B68D0814B01222B
:1033C0001A60FFF74DF805467D4B1B6813F0020F9E
:1033D00054D1FFF745F8401B0228F5D9032058E1E6
:1033E000774A136843F480331360B5E7744B1A6867
:1033F00042F480221A601A6842F480321A60ABE705
:10340000FFF72EF805466E4B1B6813F4003FC3D040
:10341000FFF726F8401B6428F5D9032039E1684BF3
:103420005B6813F4800FC6D1654B1B6813F0020F65
:1034300004D0E368012B01D001202AE1604A13681F
:1034400023F0F803216943EAC1031360236813F0F2
:10345000080F40D0636963B35B4B01221A60FEF72B
:10346000FFFF0546564B5B6F13F0020F33D1FEF79B
:10347000F7FF401B0228F5D903200AE1504A1368E0
:1034800023F0F803216943EAC1031360DEE74D4BE3
:1034900000221A60FEF7E4FF0546494B1B6813F053
:1034A000020FD3D0FEF7DCFF401B0228F5D9032022
:1034B000EFE0454B00221A60FEF7D2FF0546404B75
:1034C0005B6F13F0020F06D0FEF7CAFF401B022805
:1034D000F5D90320DDE0236813F0040F79D0384BD1
:1034E0001B6C13F0805F33D100230193344B1A6CB3
:1034F00042F080521A641B6C03F080530193019BCD
:103500000125324B1B6813F4807F23D0A368012B65
:1035100034D0052B38D02A4B1A6F22F001021A67DB
:103520001A6F22F004021A67A368002B36D0FEF748
:1035300097FF0646224B1B6F13F0020F48D1FEF790
:103540008FFF801B41F288339842F3D90320A0E01B
:103550000025D6E71D4A136843F480731360FEF715
:103560007FFF0646194B1B6813F4807FCED1FEF710
:1035700077FF801B0228F5D903208AE0104A136FD9
:1035800043F001031367CFE70D4B1A6F42F00402BB
:103590001A671A6F42F001021A67C5E7FEF760FF6B
:1035A0000646074B1B6F13F0020F11D0FEF758FFB2
:1035B000801B41F288339842F3D9032069E000BFB1
:1035C0000038024000004742800E47420070004031
:1035D000E5B9A369002B5BD0304A926802F00C0277
:1035E000082A58D0022B17D02D4B00221A60FEF764
:1035F00037FF0446294B1B6813F0007F42D0FEF7CB
:103600002FFF001B0228F5D9032042E0234A136C48
:1036100023F080531364DCE7214B00221A60FEF78D
:103620001FFF05461D4B1B6813F0007F06D0FEF7F9
:1036300017FF401B0228F5D903202AE0E369226A1C
:103640001343626A43EA8213A26A5208013A43EAC8
:103650000243E26A43EA0263104A5360104B0122BC
:103660001A60FEF7FDFE04460C4B1B6813F0007F4A
:1036700006D1FEF7F5FE001B0228F5D9032008E06D
:10368000002006E0002004E001207047012000E057
:10369000002002B070BD0120FBE700BF00380240EF
:1036A00060004742324B9B6803F00C03042B5CD054
:1036B000082B01D02F4870472DE9F04B2C4B5A684E
:1036C00002F03F025B6813F4800F2BD0284B5B683D
:1036D000C3F388131E4600275C010025E41A65EB3E
:1036E0000705A90141EA9461A001001B61EB0501F6
:1036F000CB0043EA5073C400A01943EB07014B020F
:1037000043EAD053440220461946002302F0F6FB58
:10371000174B5B68C3F3014301335B00B0FBF3F06D
:10372000BDE8F08B124B5B68C3F388131E4600277D
:103730005C010025E41A65EB0705A90141EA9461E3
:10374000A001001B61EB0501CB0043EA5073C400EC
:10375000A01943EB07018B0243EA905384022046F1
:103760001946002302F0CAFBD2E70348704700BFA6
:10377000003802400024F40000127A00002800F013
:103780009D8070B504464F4B1B6803F00F038B42BE
:1037900009D2CBB24B4A1370136803F00F038B426C
:1037A00001D0012070BD236813F0020F17D013F071
:1037B000040F04D0444A936843F4E05393602368B1
:1037C00013F0080F04D0404A936843F460439360B9
:1037D0003D4A936823F0F003A068034393600D46CD
:1037E000236813F0010F32D06368012B21D09A1E99
:1037F000012A25D9344A126812F0020F60D03249EA
:103800008A6822F0030213438B60FEF729FE064606
:103810002D4B9B6803F00C036268B3EB820F16D04C
:10382000FEF71EFE801B41F288339842F0D9032038
:10383000B8E7254A126812F4003FE0D10120B1E751
:10384000214A126812F0007FD9D10120AAE71D4B4E
:103850001B6803F00F03AB4209D9EAB2194B1A7087
:103860001B6803F00F03AB4201D001209AE72368E5
:1038700013F0040F06D0144A936823F4E053E16870
:103880000B439360236813F0080F07D00E4A936828
:1038900023F46043216943EAC1039360FFF702FF09
:1038A000094B9B68C3F30313084AD35CD840084B09
:1038B00018600F20FEF788FD002073E70120704795
:1038C00001206FE7003C0240003802402C750008E0
:1038D00014000020014B1868704700BF140000203E
:1038E00008B5FFF7F7FF044B9B68C3F38223034A35
:1038F000D35CD84008BD00BF003802403C750008CA
:1039000008B5FFF7E7FF044B9B68C3F34233034A54
:10391000D35CD84008BD00BF003802403C750008A9
:103920000268D36823F49073D3600268536923F06C
:1039300001035361202380F83A30704790F8393002
:10394000DBB2212B2AD18368B3F5805F16D0036ADE
:103950005A1C02621A7803685A60C38C013B9BB2FE
:10396000C384EBB90268D36823F08003D360026894
:10397000D36843F04003D36000207047036A1B887C
:103980000268C3F30803536003691BB9036A023377
:103990000362E2E7036A01330362DEE70220704755
:1039A000002070472DE9F843044601680A6922F4B3
:1039B0004052C36813430B610168CA6822F416427F
:1039C00022F00C0283680069034360690343E069E5
:1039D00003431343CB6021684A6922F44072A36910
:1039E00013434B61E369B3F5004F60D02368B84AD5
:1039F000934200F0148102F58062934200F00F813F
:103A0000FFF76EFF00EB800000EB80006568AD0003
:103A1000B0FBF5F5AF4FA7FB05356D092E01FFF79C
:103A20005FFF00EB800000EB80006568AD00B0FB3D
:103A3000F5F9FFF755FF00EB800000EB80006568AB
:103A4000AD00B0FBF5F5A7FB05356D094FF0640837
:103A500008FB15952D013235A7FB05356D0905F0DD
:103A6000F0053544FFF73CFF00EB800000EB8000E1
:103A70006668B600B0FBF6F6FFF732FF00EB800099
:103A800000EB800063689B00B0FBF3F0A7FB003005
:103A9000400908FB10684FEA081808F13208A7FB34
:103AA0000837C7F3431723682F449F600DE123684D
:103AB000874A93425BD002F58062934257D0FFF76A
:103AC0000FFF00EB800000EB800065686D00B0FB2D
:103AD000F5F5804FA7FB05356D092E01FFF700FFB7
:103AE00000EB800000EB800065686D00B0FBF5F92D
:103AF000FFF7F6FE00EB800000EB800065686D00CC
:103B0000B0FBF5F5A7FB05356D094FF0640808FB20
:103B10001595ED003235A7FB05356D096D0005F4EF
:103B2000F8753544FFF7DCFE00EB800000EB800009
:103B300066687600B0FBF6F6FFF7D2FE00EB800079
:103B400000EB800063685B00B0FBF3F3A7FB03238B
:103B50005B0908FB13684FEAC80808F13208A7FBA5
:103B60000837C7F3421723682F449F60ADE0FFF783
:103B7000C7FE00EB800000EB800065686D00B0FBC5
:103B8000F5F5544FA7FB05356D092E01FFF7B8FE7B
:103B900000EB800000EB800065686D00B0FBF5F97C
:103BA000FFF7AEFE00EB800000EB800065686D0063
:103BB000B0FBF5F5A7FB05356D094FF0640808FB70
:103BC0001595ED003235A7FB05356D096D0005F43F
:103BD000F8753544FFF794FE00EB800000EB8000A1
:103BE00066687600B0FBF6F6FFF78AFE00EB800011
:103BF00000EB800063685B00B0FBF3F3A7FB0323DB
:103C00005B0908FB13684FEAC80808F13208A7FBF4
:103C10000837C7F3421723682F449F6055E0FFF72A
:103C20006FFE00EB800000EB80006568AD00B0FB2C
:103C3000F5F5284FA7FB05356D092E01FFF760FE4E
:103C400000EB800000EB80006568AD00B0FBF5F98B
:103C5000FFF756FE00EB800000EB80006568AD00CA
:103C6000B0FBF5F5A7FB05356D094FF0640808FBBF
:103C700015952D013235A7FB05356D0905F0F005C9
:103C80003544FFF73DFE00EB800000EB80006668E6
:103C9000B600B0FBF6F6FFF733FE00EB800000EB5A
:103CA000800063689B00B0FBF3F0A7FB0030400985
:103CB00008FB10684FEA081808F13208A7FB08371C
:103CC000C7F3431723682F449F60BDE8F88300BF04
:103CD000001001401F85EB51704758B310B50446E2
:103CE00090F839300BB3242384F839302268D36834
:103CF00023F40053D3602046FFF754FE2268136973
:103D000023F4904313612268536923F02A0353611B
:103D10002268D36843F40053D3600020E06320237B
:103D200084F8393084F83A3010BD80F83830FFF725
:103D3000D3FFD8E70120704790F83930DBB2202B51
:103D400016D1B9B1C2B190F83830012B16D001624A
:103D50008284C2840023C363212280F8392080F842
:103D600038300168CA6842F08002CA60184670475D
:103D700002207047012070470120704702207047E1
:103D800090F83A30DBB2202B1BD1E1B1EAB190F8C8
:103D90003830012B1BD081628285C2850023C3632A
:103DA000222280F83A2080F8383001684A6942F0CF
:103DB00001024A610168CA6842F49072CA601846FA
:103DC0007047022070470120704701207047022091
:103DD000704708B50168CB6823F04003CB6020230F
:103DE00080F83930FCF75CFD002008BD08B590F87C
:103DF0003A30DBB2222B40D18368B3F5805F0ED01E
:103E0000036903BB03685A68836A591C81621A708C
:103E1000C38D013B9BB2C385F3B100202EE0826AC3
:103E2000036943B903685B68C3F308031380836ABB
:103E300002338362ECE703685B68DBB21380836A5A
:103E400001338362E4E703685B68826A511C816224
:103E500003F07F031370DBE70268D36823F49073E9
:103E6000D3600268536923F001035361202380F873
:103E70003A30FCF719FD002000E0022008BD0000E8
:103E800010B5044602681368D168526913F00F0038
:103E900005D113F0200F02D011F0200F53D10028CC
:103EA00067D012F0010202D111F4907F61D013F0BB
:103EB000010F06D011F4807F03D0E06B40F00100C9
:103EC000E06313F0040F04D01AB1E06B40F002007D
:103ED000E06313F0020F04D01AB1E06B40F004006D
:103EE000E06313F0080F04D01AB1E26B42F008024D
:103EF000E263E26B002A48D013F0200F02D011F0E9
:103F0000200F24D123685B6903F04003E26B12F0B9
:103F1000080F00D13BB32046FFF702FD23685A6922
:103F200012F0400F1BD05A6922F040025A61636BB5
:103F30008BB11A4A1A65606BFEF714FB28B3606BED
:103F4000036D984721E02046FFF750FF1DE0204613
:103F5000FFF74CFFD6E72046FCF7AAFC15E0204609
:103F6000FCF7A6FC11E02046FCF7A2FC0023E3636B
:103F70000BE013F0800F02D011F0800F06D113F088
:103F8000400F02D011F0400F04D110BD2046FFF7C2
:103F9000D5FCFAE72046FFF71CFFF6E7A13F000833
:103FA00008B5806B0023C385C384FCF781FC08BD82
:103FB00084B010B5044603A880E80E00089B012BCE
:103FC00020D1A36B23F48033A363E36823F4840339
:103FD00023F04003E360E36823F44013E3600F9BA6
:103FE000012B0AD0204600F099F8069B012B14D033
:103FF0000020BDE8104004B07047E36843F480132C
:10400000E360EFE7E36843F04003E360204600F03D
:1040100085F84FF48033A363E7E7A36843F0060312
:10402000A360A36843F02003A360E1E7836843F043
:104030000103836000207047836823F001038360DD
:104040000020704708B5C36823F0C043C36001294E
:1040500009D019B9C36843F08043C3603220FEF72A
:1040600005FA002008BDC36843F00053C360F5E7BC
:10407000890141F02001016100230133054A934287
:1040800005D8026912F0200FF7D1002070470320F5
:10409000704700BF400D030010230361002301336C
:1040A000054A934205D8026912F0100FF7D100209B
:1040B00070470320704700BF400D030070B49DF8A7
:1040C0000C4064B903339D0807E000EB023303F5AD
:1040D000805351F8046B1E600134AC42F5D30020CC
:1040E00070BC704703329208002393420CD210B484
:1040F00000F58054246841F8044B01339342F7D310
:1041000008465DF8044B704708467047426980696D
:1041100010407047406900F00100704700230133F0
:104120000C4A934211D80269002AF8DA036943F075
:104130000103036100230133064A934207D8026951
:1041400012F0010FF7D100207047032070470320C1
:10415000704700BF400D030084B038B5044605A881
:1041600080E80E0025460023C4F8003EA36B23F42C
:104170008023A363A36B23F40023A363A36B43F403
:104180000013A363079B032B0ED0D4F8003423F055
:104190000403C4F8003410212046FFF769FF2046CD
:1041A000FFF77AFF002213E0B4F1A04FEDD0D4F86E
:1041B000003443F00403C4F80034ECE705EB421389
:1041C0004FF0FF31C3F808150021C3F80C15013278
:1041D000069B9342F2D80121204600F06DF8C820DA
:1041E000FEF744F90023A3614FF0FF336361B4F19C
:1041F000A04F17D04FF40073636203F18073A36282
:104200000D4BC4F80031089B1BB9A36943F01003A0
:10421000A361A269094B1343A3610020BDE83840A4
:1042200004B070478023636203F5C003A362044BAC
:10423000C4F80031E7E700BF0003E000080020A356
:10424000E000400010B400F58064D0F8003423F0A2
:104250000303C0F80034D0F8003401F00302134324
:10426000C0F80034012905D0022907D000205DF8EC
:10427000044B70474BF680336360F7E741F270738D
:104280006360F3E710B582B00446D0F84034019380
:10429000019B23F02E030193019B43F48073C0F82C
:1042A00040340A20FEF7E2F8019B23F48073C4F83F
:1042B0004034002002B010BD82B0D0F840340193E9
:1042C000019B23F02E030193019B13F4805F01D126
:1042D00001290CD0019B13F4805F05D021B9019B0B
:1042E00023F48053C0F84034002002B07047019B93
:1042F00043F48053C0F84034ECE782B0D0F8403447
:1043000001930198C0F3414002B0704700F580600E
:10431000806880B27047F0B49DF8144000EB4115FE
:1043200005F5A0664FF0FF37B760032C1CD8DFE817
:1043300004F0024D021540F29D47F76012F0800F25
:1043400007D1B0F1A04F0FD0F76847F06007F760D2
:104350000AE0F76847F48077F76005E040F29D6770
:10436000F76012F0800F2CD1D0F81864012707FAFB
:1043700001F13143C0F81814816941F00071816185
:104380009B0503F0FE53D10201F4F0410B4352B2FE
:1043900002F4004213439DF81020022A21D000228B
:1043A0001343A20402F440221343BDF81820C2F3C1
:1043B0000A021343C5F80035032C15D00020F0BCC9
:1043C0007047F76847F48077F760CDE740F225271C
:1043D000F76012F0800FC7D0F76847F4C077F76036
:1043E000C2E74FF40032DBE7D5F8003543F0005365
:1043F000C5F80035E2E7000080B58AB002AFF8608A
:10440000B9601346FB7100237B7700237B83002375
:10441000FB834FF480733B8300237B61FB68B3F124
:10442000A04F2AD0BB681B79002B26D1FB79002B2B
:104430000BD1BB685B79012B07D1BB685B78194650
:10444000F86800F003FA002309E1FB79012B14D18D
:10445000BB685B785A01FB68134403F5A063DB6813
:10446000BA6852785101FA680A4402F5A06223F052
:104470006003D360BB6800225A71BB681B69002BC4
:1044800019D0BB681B69BA6812891344013BBA682A
:104490001289B3FBF2F3FB83FA8B3B8B9A420CD964
:1044A0003B8BFB83FB8BBA68128902FB03F31A4632
:1044B000BB681A6101E00123FB83BB68DB78002B3A
:1044C00007D0FB8BBA68128902FB03F31A46BB685C
:1044D0001A61BB681B69C3F31202FB8BDB0419462C
:1044E000614B0B401A43BB689B7A5B0703F0C043E8
:1044F000B96849784801F968014401F5A06113439E
:104500000B61FB79002B0AD0BB68D968BB685B786C
:104510005A01FB68134403F5A0630A465A61FB681D
:1045200003F580639B6803F00103002B0CBF01239C
:104530000023DBB27B77BB685B785A01FB681344CE
:1045400003F5A0631B68BA6852785101FA680A44FF
:1045500002F5A06223F000531360BB685B785A0138
:10456000FB68134403F5A0631B687A7F520710466B
:10457000BA6852785101FA680A4402F5A06203430E
:104580001360BB685B785A01FB68134403F5A063B2
:104590001B687B617B6923F080437B617B6943F00F
:1045A00000437B61BB685B785A01FB68134403F5E9
:1045B000A0631A467B691360FB79002B4ED1BB6860
:1045C000DB78002B4AD1BB681B69002B46D0BB6847
:1045D000DB79032B30D801A252F823F0ED45000817
:1045E00011460008ED45000811460008BB681B692C
:1045F00003339B087B837A8BFB68DB6A9BB29A420E
:104600001CD9FB689B6943F02002FB689A6115E0A6
:10461000BB681B6903339B087B837A8BFB6803F5BC
:1046200080631B699BB29A420AD9FB689B6943F07D
:104630008062FB689A6103E000BF02E000BF00E017
:1046400000BFBB68D968BB685A78BB681B6998B261
:10465000002300930346F868FFF730FD0023184657
:104660002037BD4680BD00BF0000F81F80B483B076
:1046700000AF78607B6803F580635B699BB2184686
:104680000C37BD465DF8047B704780B485B000AF41
:1046900078600B46FB700023FB60FB785A017B6857
:1046A000134403F5A0631B689B0C03F00303002B6A
:1046B0000BD0FB785A017B68134403F5A0631B6899
:1046C0009B0C03F00303022B5CD1FB785A017B683F
:1046D000134403F5A0631B68FA7851017A680A4411
:1046E00002F5A06243F0804313607B68DB6A03F449
:1046F0007F03002B33D1FB785A017B68134403F509
:10470000A0631B68FA7851017A680A4402F5A06236
:1047100023F000431360FB785A017B68134403F5D0
:10472000A0631B68FA7851017A680A4402F5A06216
:1047300043F000431360FB680133FB60FB68B3F593
:104740007A7F1DD8FB785A017B68134403F5A06378
:104750001B6803F00043B3F1004FECD06FE0FB782F
:104760005A017B68134403F5A0631B68FA78510172
:104770007A680A4402F5A06243F0004313605EE0E9
:1047800000BF5CE0FB785A017B68134403F5A0632B
:104790001B68FA7851017A680A4402F5A06243F076
:1047A000804313607B6803F580631B699BB2002B19
:1047B00033D1FB785A017B68134403F5A0631B686F
:1047C000FA7851017A680A4402F5A06223F00043A6
:1047D0001360FB785A017B68134403F5A0631B68E0
:1047E000FA7851017A680A4402F5A06243F0004366
:1047F0001360FB680133FB60FB68B3F57A7F1DD85B
:10480000FB785A017B68134403F5A0631B6803F02F
:104810000043B3F1004FECD011E0FB785A017B6804
:10482000134403F5A0631B68FA7851017A680A44BF
:1048300002F5A06243F00043136000E000BF0023D4
:1048400018461437BD465DF8047B704780B485B0C8
:1048500000AF78600B46FB700123FB730023BB6045
:10486000FB7BDB041A46154B1340FA7851017A683A
:104870000A4402F5A06243F000431361FB785A0139
:104880007B68134403F5A0631B68BB60BB6823F01F
:104890008043BB60BB6843F00043BB60FB785A01B8
:1048A0007B68134403F5A0631A46BB6813600023BA
:1048B00018461437BD465DF8047B70470000F81FAA
:1048C00080B586B000AF786000233B617868FFF761
:1048D000B3FB10217868FFF7CBFB7868FFF7DCFBB0
:1048E0000023FB751FE0FB7D5A017B68134403F531
:1048F000A0631B68FB60FB6843F08043FB60FB68C0
:1049000023F00043FB60FB6823F40043FB60FB7D66
:104910005A017B68134403F5A0631A46FB681360D1
:10492000FB7D0133FB75FB7D0F2BDCD90023FB7571
:1049300034E0FB7D5A017B68134403F5A0631B68D8
:10494000FB60FB6843F08043FB60FB6843F000437F
:10495000FB60FB6823F40043FB60FB7D5A017B682E
:10496000134403F5A0631A46FB6813603B690133E7
:104970003B613B69B3F57A7F0CD8FB7D5A017B68BC
:10498000134403F5A0631B6803F00043B3F1004F29
:10499000ECD000E000BFFB7D0133FB75FB7D0F2BEE
:1049A000C7D97B6803F580631A464FF0FF33536124
:1049B0007B684FF0FF325A617868FFF737FB0023BE
:1049C00018461837BD4680BD08B5024B1868FDF77C
:1049D000F1FA08BD9440002008B50248FDF7D7FD64
:1049E00008BD00BF005F002008B5D0F83C350221AB
:1049F0009847002008BD0020704708B521220274A6
:104A0000202242740022428282820722C28201F066
:104A100011F908BD08B5A1220274212242740022B6
:104A2000428282820722C28201F004F908BD38B5B1
:104A30000546D0F8EC34DC69217879B9217BB1B92D
:104A4000617BF1B9D5F8EC34D86928B101F0E4FB09
:104A5000D5F8EC340022DA61002038BD01F02BFAE1
:104A60002178284601F03EFA00232370E6E7284625
:104A700001F021FA217B284601F034FA0023237348
:104A8000DEE7284601F017FA617B284601F02AFA92
:104A900000236373D6E770B584B00446022100F0AA
:104AA00093FCD4F8EC54502001F0AEFBE861D4F84C
:104AB000EC34DD6994F88C3413F0800F60D16978A0
:104AC000204601F0FDF90146287094F81C346A78FC
:104AD000688902900320019094F81D0400902046FC
:104AE00001F0D9F900222978204600F077FA94F9EC
:104AF0009434002B49DB94F88C34AB73B4F88E34C7
:104B00002B8394F99C34002B46DB94F89434AB73DC
:104B1000B4F896342B83A97B204601F0D1F9687351
:104B2000E97B204601F0CCF9287394F81C34AA7B69
:104B3000697B288B02900226019694F81D04009050
:104B4000204601F0A8F994F81C34EA7B297B688B95
:104B50000290019694F81D040090204601F09BF904
:104B6000002685F84C603246697B204600F036FA14
:104B70003246297B204600F031FA304604B070BD41
:104B80006B70B4F88E346B8199E794F88C34EB73C6
:104B9000B4F88E346B83B4E794F89434EB73B4F8C0
:104BA00096346B83B7E710B5D0F8EC34DB6993F833
:104BB0004C401CB1032C01D001200EE0D9615A6297
:104BC000032283F84C20012283F84D200022042187
:104BD000D0F84005FDF724FA002010BD704730B52D
:104BE00083B00546D0F8EC34DC6994F84D30012BE5
:104BF00003D0022B19D003B030BD606A228B9042E3
:104C00000AD9637BE16901200090284601F00AF986
:104C1000022384F84D30EEE7637BE16901220092C4
:104C200082B2284601F0FEF8F2E7617B00F0CAF993
:104C300001280BD00228DED1012384F84D30002258
:104C40000421D5F84005FDF7EBF9D4E7636A228B20
:104C5000934210D99B1A6362E3691A44E261636A62
:104C600063B1012384F84D3000220421D5F84005BA
:104C7000FDF7D6F9BFE700236362F0E7002384F86D
:104C80004D302846FFF7AAFFEEE7704738B50546D6
:104C9000D0F8EC34DC6994F84E30032B02D0042BAE
:104CA00009D038BD237B628B216A01F0D1F804233F
:104CB00084F84E30F5E7217B00F084F90128F0D12B
:104CC000217B284600F036F980B2A36A83420BD0DC
:104CD000628B824208D21B1AA362236A18442062A4
:104CE000032384F84E3005E0002384F84E30284634
:104CF000FFF7CBFF00220421D5F84005FDF790F91E
:104D0000CFE7704738B50546D0F8EC34DC6994F845
:104D10004C30042B04D8DFE803F04C05163C43006C
:104D2000012347E0A16CFFF768FE034630B101287C
:104D300040D0042384F84C3001233BE0022384F864
:104D40004C30012336E004F14001FFF763FE0346D7
:104D5000C0B9002384F84C30636C23F07F42A16C0F
:104D60004B6823F07F439A4201D0012322E0226C5A
:104D70000B689A4201D001231CE02846FFF7C1FFCF
:104D8000012317E0012815D0042384F84C300123B7
:104D900010E0FFF724FF2846FFF778FF012309E022
:104DA000002100F0F6FF38B9002384F84C300123CD
:104DB00000E00023184638BD0123FBE70368B3F188
:104DC000A04F00D0704730B589B000250195184C30
:104DD000236B43F001032363236B03F0010301936F
:104DE000019B4FF4C05303930223049305950323BF
:104DF00006930A23079303A90E48FDF70FFC636B84
:104E000043F0800363630295636C43F480436364FF
:104E1000636C03F480430293029B2A4605214320DE
:104E2000FDF74AFB4320FDF77BFB09B030BD00BF17
:104E3000003802400000024008B5D0F8940200F0AB
:104E400071FC08BD08B5D0F8940200F074FC08BDF0
:104E500008B5D0F8940200F089FC08BD08B5D0F878
:104E6000940200F0AFFC08BD90F83435012B01D05E
:104E70000020704710B504461048C0F89442C4F8AA
:104E800038054FF0A0430360082383600323C36009
:104E90000023036102228261C361FDF736FD40B940
:104EA0000648FEF728FA0146204600F038FC0020AC
:104EB00010BDDA210248FBF723FCF1E71877002048
:104EC0009076000808B5D0F83805FEF7DAF918B181
:104ED000022803D0022008BD0020FCE70120FAE7E9
:104EE00008B5D0F83805FEF7E2F918B1022803D06A
:104EF000022008BD0020FCE70120FAE708B5D0F841
:104F00003805FEF7FDF918B1022803D0012008BDCD
:104F10000020FCE70220FAE708B5D0F83805FEF7D4
:104F2000D8F918B1022803D0022008BD0020FCE700
:104F30000120FAE708B5D0F83805FEF7D6F908BD24
:104F400010B584B0D0F83805BDF8204002949DF823
:104F50001C4001949DF818400094FDF78BFC20B193
:104F6000022804D0022004B010BD0020FBE701207D
:104F7000F9E708B5D0F83805FDF7B5FC18B10228F7
:104F800003D0022008BD0020FCE70120FAE710B59D
:104F900084B0D0F838059DF824400394BDF8204033
:104FA0000294079C01949DF818400094FDF7E9FCD9
:104FB00020B1022804D0022004B010BD0020FBE77D
:104FC0000120F9E708B5D0F83805FEF787F908BDE4
:104FD00008B5C820FDF74AFA002008BD10B4D0F883
:104FE000383501EB8104E0000446184490F83B009A
:104FF00048B901EB8101C800034483F85120002027
:105000005DF8044B7047234483F85020F7E708B558
:10501000FDF72CFA08BD000008B50248FEF790F82D
:1050200008BD00BF18770020002306E003F59E723C
:1050300000EB82020021516001330E2BF6D90023D0
:1050400004E0C218002182F81C120133B3F5007F7E
:10505000F7D300230370437001228270C0F830350B
:10506000027640218171437680F81C3480F81D243B
:105070001846704708B50378DBB20A2B00D008BD8C
:10508000D0F8EC34002BFAD09B699847F7E7000082
:1050900070B584B004464378072B00F20B81DFE83B
:1050A00013F0080031004C007E0088009200BF0021
:1050B000E600082100F001FE18B10124204604B0EA
:1050C00070BD94F82724A2710125657094F81C34F2
:1050D000217902920026019694F81D2400928022E4
:1050E000204600F0D8FE94F81C346179A27902922F
:1050F000019694F81D2400923246204600F0CBFE23
:105100002C46DBE7122100F0D8FD08B10124D5E7D9
:10511000B4F82A146A4801F043F96A4D284601F0B0
:105120003FF9B4F82814684801F03AF9284601F02C
:1051300037F9022363700124C0E7012100F007FE64
:1051400008B10124BAE70220FFF761FF012584F8C6
:105150001C5429465D4801F023F95A4801F020F912
:105160000323637094F81C342179A27902920026FB
:10517000019694F81D2400928022204600F08BFEB8
:1051800094F81C346179A2790292019694F81D2456
:1051900000923246204600F07EFE2C468EE7092122
:1051A00000F0A4FD002840F08780042363700124F0
:1051B00084E7B0F8341400F099FD00287ED105236F
:1051C000637001247AE790F82E14C9B100F50775D1
:1051D000FF232A4600F0A3FD08B101246EE729460B
:1051E0003B4801F0DDF8374801F0DAF80623637038
:1051F00000220521D4F84005FCF712FF01245DE7E9
:10520000344801F0CDF82F4801F0CAF80623637046
:1052100000220521D4F84005FCF702FF01244DE7E8
:1052200090F82F1499B100F50775FF232A4600F076
:1052300076FD08B1012441E72946274801F0B0F87E
:10524000204801F0ADF807236370012436E72348B6
:1052500001F0A6F81B4801F0A3F8072363700022B1
:105260000521D4F84005FCF7DBFE012426E790F881
:10527000301489B100F50775FF232A4600F04FFD71
:10528000044608B1012419E72946154801F088F8B9
:105290000C4801F085F811E7124801F081F809483F
:1052A00001F07EF800220521D4F84005FCF7B8FE95
:1052B000002403E7012401E70124FFE60124FDE6C1
:1052C000D0760008DC750008DC760008E876000877
:1052D000007700081477000828770008387700085E
:1052E000487700085C77000870B588B058B30C4662
:1052F000054680F834250023C0F8EC34C0F8F034BB
:10530000FFF792FE0CB1C5F83C45144C06AB94E88F
:10531000030083E8030000211846FCF779FEC5F876
:10532000400501AE08340FCC0FC623683360294610
:1053300001A8FCF725FEC5F844052846FFF794FDB3
:10534000002008B070BD064801F02AF8054801F0B9
:1053500027F8054801F024F80220F2E7B4760008A7
:105360007077000878770008DC75000808B5B9B1D7
:105370000A46D0F8F03443B9591CC0F8F01403F5CC
:105380009D7340F82320002008BD0B4801F008F869
:105390000A4801F005F80A4801F002F80220F3E794
:1053A000054800F0FDFF074800F0FAFF044800F050
:1053B000F7FF0220E8E700BF70770008A478000834
:1053C000DC750008C07800082DE9F04190F836340B
:1053D0008B422AD904460D4684F81F14184800F061
:1053E000DFFFDFF87480404600F0DAFF2E0173190A
:1053F0005F00274497F84114124800F0D1FF40465F
:1054000000F0CEFF97F842140F4800F0C9FF404665
:1054100000F0C6FF97F843140C4800F0C1FF404667
:1054200000F0BEFF0020BDE8F081094800F0B8FFA1
:10543000084800F0B5FF084800F0B2FF0220F2E78C
:10544000D8780008F878000808790008187900086A
:105450007077000828790008DC75000810B504464C
:10546000FFF730FD01212046FFF7B2FD002010BDFF
:1054700030B587B0044602238DF817300378DBB2CD
:105480000A2B5AD8DFE813F00B0059001E00150153
:1054900059005C00EC007900880097000D0190F83D
:1054A0001E34002B49D001250570C820FFF7AFFD41
:1054B0002046FFF731FD00222946D4F84005FCF7CD
:1054C000AFFD3AE0824800F06BFF824800F068FFD1
:1054D0006420FFF79CFD2046FFF710FD84F81D04B3
:1054E000052323700021204600F0EAFC6071802132
:1054F000204600F0E5FC0146207194F81C34A279A6
:1055000002920025019594F81D24009280222046E5
:1055100000F0C1FC94F81C346179A27902920195E3
:1055200094F81D2400922A46204600F0B4FC2A4636
:105530000121D4F84005FCF773FD002007B030BD11
:10554000FFF7A6FD0028F8D1634800F029FF614865
:1055500000F026FF002384F81F3494F83134012B27
:1055600002D007232370E8E75C4800F019FF594890
:1055700000F016FF08232370DFE7D0F83C35002B3E
:10558000DBD0012198470823237000220521D4F89D
:105590004005FCF745FDD0E790F8371400F0E8FB34
:1055A0000028CAD1092323704D4800F0F9FE49486C
:1055B00000F0F6FEC1E7D0F8F034E3B10023C0F804
:1055C000EC342BB3D4F8EC34002B40D09B6820464D
:1055D000984780BB06232370D4F8EC3419684148FF
:1055E00000F0DEFE3B4800F0DBFED4F83C35032142
:1055F0002046984705E03C4800F0D2FE354800F0D0
:10560000CFFE00220521D4F84005FCF709FD94E700
:1056100003F59D7254F82220117994F841249142A7
:1056200002D00133DBB2CCE703F59D7254F822209F
:10563000C4F8EC24F5E70C232370D4F8EC34196893
:105640002A4800F0ADFE234800F0AAFED9E70C235B
:105650002370274800F0A4FE1E4800F0A1FED0E70A
:10566000D0F8EC345BB11B6998478DF817009DF8B2
:105670001730002B7FF461AF0A2323705DE70C2302
:1056800003701C4800F08CFE1B4800F089FE114896
:1056900000F086FE00220521D4F84005FCF7C0FC8E
:1056A0004BE7D0F8EC34002B3FF447AF5B699847E9
:1056B00043E7FFF7B9FCD4F8EC34002B3FF43DAFDF
:1056C000DB68204698470023C4F8EC3435E700BF78
:1056D000A4770008DC750008B8770008CC770008CC
:1056E000F477000830780008107800084478000843
:1056F00064780008707700088C78000800B585B0E1
:1057000004464FF0FF32D4F8401501A8FCF7BCFC6A
:10571000019B102BF5D12046FFF7AAFEF1E7C0F858
:105720003015704708B5D0F830350133C0F8303542
:10573000FFF7A0FC08BD10B5044603787BB9012330
:1057400080F81E34D0F83C350BB104219847002274
:105750000121D4F84005FCF763FC002010BD03785C
:10576000DBB2012BF3D102230370F0E710B504463E
:10577000FFF7B6FB2179204600F0B4FB61792046A3
:1057800000F0B0FB002384F81E34D4F83C3513B18C
:10579000052120469847094800F002FE084800F01D
:1057A000FFFD2046FFF78EFB03232370002201211B
:1057B000D4F84005FCF734FC002010BD8C770008BD
:1057C000DC75000808B500220221D0F84005FCF77E
:1057D00027FC002008BD10B40B7803704B78437091
:1057E0008B78CC7803EB042343800B7903714B79DE
:1057F00043718B798371CB79C371082A16D90B7ADF
:105800004A7A03EB022303818B7ACA7A03EB0223E1
:1058100043810B7B4A7B03EB022383818B7B837366
:10582000CB7BC3730B7C03744B7C43745DF8044BDC
:1058300070470B7803704B7843708B788370CB780C
:10584000C3700B7903714B7943718B798371CB7979
:10585000C3710B7A037270470B7803704B784370F7
:105860008B788370CB78C3700B794A7903EB022372
:1058700083808B79837170474378032B00D0704706
:105880000378023B9A42A8BF1A4692B20023934281
:105890000DD210B4C418A47801F8014B02339BB2A6
:1058A0009342F7D300230B705DF8044B704700233D
:1058B0000B70704730B583B00446037E013B0A2B62
:1058C00000F24381DFE813F00B00150044005000A4
:1058D00077008500BA00C600ED00FB002401427984
:1058E00000F1100100F067FA02232376012003B0D3
:1058F00030BD4179FFF766FB012803D004281DD095
:105900000120F4E7237CE28A7AB113F0800F09D1F9
:105910000523237600220321D4F84005FCF780FB01
:105920000120E4E703232376F4E713F0800F02D18C
:1059300007232376EEE709232376EBE70B23237671
:1059400000220321D4F84005FCF76AFB0120CEE7D2
:10595000D0F83035C38103798289816800F052FA2A
:10596000042323760120C2E70179FFF72BFB0546CC
:10597000012805D0052D0CD0042D12D00120B6E74A
:105980000923237600220321D4F84005FCF748FBC5
:10599000F0E700220321D4F84005FCF741FB032087
:1059A000A5E70B23237600220321D4F84005FCF75A
:1059B00037FB01209BE743798289012500958168A7
:1059C00000F00AFAD4F83035E3810623237628461E
:1059D0008DE74179FFF7F6FA012807D005280FD0A7
:1059E000022817D004281FD0012080E70723237640
:1059F00000220321D4F84005FCF712FB012076E7D2
:105A00000C23237600220321D4F84005FCF708FB81
:105A100003206CE70523237600220321D4F84005F8
:105A2000FCF7FEFA012062E70B2323760022032114
:105A3000D4F84005FCF7F4FA022058E70379002275
:105A4000114600F0DFF9D4F83035E38108232376DE
:105A500001204CE70179FFF7B5FA012805D00428A9
:105A60000DD0052815D0012041E70D232376002213
:105A70000321D4F84005FCF7D3FA002037E70B23C5
:105A8000237600220321D4F84005FCF7C9FA01204F
:105A90002DE700220321D4F84005FCF7C1FA0320CA
:105AA00025E74379012500950022114600F094F97D
:105AB000D4F83035E3810A232376284617E7417965
:105AC000FFF780FA012805D002280DD0042815D050
:105AD00001200CE70D23237600220321D4F8400592
